:100000000C9434000C943E000C943E000C943E0082
:100010000C943E000C943E000C943E000C943E0068
:100020000C943E000C943E000C943E000C943E0058
:100030000C943E000C943E000C943E000C943E0048
:100040000C943E000C943E000C943E000C943E0038
:100050000C943E000C943E000C943E000C943E0028
:100060000C943E000C943E0011241FBECFEFD8E04C
:10007000DEBFCDBF0E9440000C945D000C940000D8
:10008000539A83EA8093B00089E08093B1008FE3B4
:100090008093B30085E08093B400259A90E22AEA29
:1000A00036EE46E981E02150304040408040D9F7AB
:0E00B000000085B1892785B9F2CFF894FFCF03
:00000001FF
